{
  "contractName": "Actions",
  "abi": [
    {
      "inputs": [],
      "payable": true,
      "stateMutability": "payable",
      "type": "constructor"
    },
    {
      "constant": true,
      "inputs": [],
      "name": "action",
      "outputs": [
        {
          "internalType": "address payable",
          "name": "user_id",
          "type": "address"
        },
        {
          "internalType": "address payable",
          "name": "provider_id",
          "type": "address"
        },
        {
          "internalType": "string",
          "name": "name",
          "type": "string"
        },
        {
          "internalType": "string",
          "name": "location",
          "type": "string"
        },
        {
          "internalType": "string",
          "name": "time",
          "type": "string"
        },
        {
          "internalType": "uint256",
          "name": "payment_amount",
          "type": "uint256"
        }
      ],
      "payable": false,
      "stateMutability": "view",
      "type": "function"
    },
    {
      "constant": false,
      "inputs": [
        {
          "internalType": "address payable",
          "name": "_provider",
          "type": "address"
        },
        {
          "internalType": "string",
          "name": "_name",
          "type": "string"
        },
        {
          "internalType": "string",
          "name": "_locations",
          "type": "string"
        },
        {
          "internalType": "string",
          "name": "_time",
          "type": "string"
        }
      ],
      "name": "setAction",
      "outputs": [],
      "payable": true,
      "stateMutability": "payable",
      "type": "function"
    },
    {
      "constant": true,
      "inputs": [],
      "name": "getUserActions",
      "outputs": [
        {
          "components": [
            {
              "components": [
                {
                  "internalType": "address payable",
                  "name": "user_id",
                  "type": "address"
                },
                {
                  "internalType": "address payable",
                  "name": "provider_id",
                  "type": "address"
                },
                {
                  "internalType": "string",
                  "name": "name",
                  "type": "string"
                },
                {
                  "internalType": "string",
                  "name": "location",
                  "type": "string"
                },
                {
                  "internalType": "string",
                  "name": "time",
                  "type": "string"
                },
                {
                  "internalType": "uint256",
                  "name": "payment_amount",
                  "type": "uint256"
                }
              ],
              "internalType": "struct Actions.Action[]",
              "name": "actionsList",
              "type": "tuple[]"
            }
          ],
          "internalType": "struct Actions.Users",
          "name": "",
          "type": "tuple"
        }
      ],
      "payable": false,
      "stateMutability": "view",
      "type": "function"
    },
    {
      "constant": false,
      "inputs": [],
      "name": "getBalance",
      "outputs": [
        {
          "internalType": "uint256",
          "name": "",
          "type": "uint256"
        }
      ],
      "payable": true,
      "stateMutability": "payable",
      "type": "function"
    }
  ],
  "bytecode": "0x60806040523373ffffffffffffffffffffffffffffffffffffffff1631600760003373ffffffffffffffffffffffffffffffffffffffff1673ffffffffffffffffffffffffffffffffffffffff1681526020019081526020016000208190555061136d8061006e6000396000f3fe60806040526004361061003f5760003560e01c806306868618146100445780630a7a1c4d1461006057806312065fe01461009057806318ba0dd5146100ae575b600080fd5b61005e60048036036100599190810190610daf565b6100d9565b005b34801561006c57600080fd5b506100756105e1565b604051610087969594939291906110d2565b60405180910390f35b610098610813565b6040516100a591906111aa565b60405180910390f35b3480156100ba57600080fd5b506100c36108b5565b6040516100d09190611188565b60405180910390f35b34600081101561011e576040517f08c379a000000000000000000000000000000000000000000000000000000000815260040161011590611168565b60405180910390fd5b34600760003373ffffffffffffffffffffffffffffffffffffffff1673ffffffffffffffffffffffffffffffffffffffff168152602001908152602001600020548111156101a1576040517f08c379a000000000000000000000000000000000000000000000000000000000815260040161019890611148565b60405180910390fd5b8573ffffffffffffffffffffffffffffffffffffffff1631600760008873ffffffffffffffffffffffffffffffffffffffff1673ffffffffffffffffffffffffffffffffffffffff168152602001908152602001600020819055503373ffffffffffffffffffffffffffffffffffffffff1631600760003373ffffffffffffffffffffffffffffffffffffffff1673ffffffffffffffffffffffffffffffffffffffff16815260200190815260200160002081905550336000800160006101000a81548173ffffffffffffffffffffffffffffffffffffffff021916908373ffffffffffffffffffffffffffffffffffffffff16021790555085600060010160006101000a81548173ffffffffffffffffffffffffffffffffffffffff021916908373ffffffffffffffffffffffffffffffffffffffff16021790555084600060020190805190602001906102f7929190610c07565b508360006003019080519060200190610311929190610c07565b50826000600401908051906020019061032b929190610c07565b5034600060050181905550600660003373ffffffffffffffffffffffffffffffffffffffff1673ffffffffffffffffffffffffffffffffffffffff1681526020019081526020016000206000016000908060018154018082558091505090600182039060005260206000209060060201600090919290919091506000820160009054906101000a900473ffffffffffffffffffffffffffffffffffffffff168160000160006101000a81548173ffffffffffffffffffffffffffffffffffffffff021916908373ffffffffffffffffffffffffffffffffffffffff1602179055506001820160009054906101000a900473ffffffffffffffffffffffffffffffffffffffff168160010160006101000a81548173ffffffffffffffffffffffffffffffffffffffff021916908373ffffffffffffffffffffffffffffffffffffffff1602179055506002820181600201908054600181600116156101000203166002900461049a929190610c87565b50600382018160030190805460018160011615610100020316600290046104c2929190610c87565b50600482018160040190805460018160011615610100020316600290046104ea929190610c87565b506005820154816005015550505034600760003373ffffffffffffffffffffffffffffffffffffffff1673ffffffffffffffffffffffffffffffffffffffff168152602001908152602001600020600082825403925050819055503373ffffffffffffffffffffffffffffffffffffffff166108fc349081150290604051600060405180830381858888f1935050505015801561058b573d6000803e3d6000fd5b5034600760008873ffffffffffffffffffffffffffffffffffffffff1673ffffffffffffffffffffffffffffffffffffffff16815260200190815260200160002060008282540192505081905550505050505050565b60008060000160009054906101000a900473ffffffffffffffffffffffffffffffffffffffff16908060010160009054906101000a900473ffffffffffffffffffffffffffffffffffffffff1690806002018054600181600116156101000203166002900480601f0160208091040260200160405190810160405280929190818152602001828054600181600116156101000203166002900480156106c75780601f1061069c576101008083540402835291602001916106c7565b820191906000526020600020905b8154815290600101906020018083116106aa57829003601f168201915b505050505090806003018054600181600116156101000203166002900480601f0160208091040260200160405190810160405280929190818152602001828054600181600116156101000203166002900480156107655780601f1061073a57610100808354040283529160200191610765565b820191906000526020600020905b81548152906001019060200180831161074857829003601f168201915b505050505090806004018054600181600116156101000203166002900480601f0160208091040260200160405190810160405280929190818152602001828054600181600116156101000203166002900480156108035780601f106107d857610100808354040283529160200191610803565b820191906000526020600020905b8154815290600101906020018083116107e657829003601f168201915b5050505050908060050154905086565b60003373ffffffffffffffffffffffffffffffffffffffff1631600760003373ffffffffffffffffffffffffffffffffffffffff1673ffffffffffffffffffffffffffffffffffffffff16815260200190815260200160002081905550600760003373ffffffffffffffffffffffffffffffffffffffff1673ffffffffffffffffffffffffffffffffffffffff16815260200190815260200160002054905090565b6108bd610d0e565b600660003373ffffffffffffffffffffffffffffffffffffffff1673ffffffffffffffffffffffffffffffffffffffff16815260200190815260200160002060405180602001604052908160008201805480602002602001604051908101604052809291908181526020016000905b82821015610bfa57838290600052602060002090600602016040518060c00160405290816000820160009054906101000a900473ffffffffffffffffffffffffffffffffffffffff1673ffffffffffffffffffffffffffffffffffffffff1673ffffffffffffffffffffffffffffffffffffffff1681526020016001820160009054906101000a900473ffffffffffffffffffffffffffffffffffffffff1673ffffffffffffffffffffffffffffffffffffffff1673ffffffffffffffffffffffffffffffffffffffff168152602001600282018054600181600116156101000203166002900480601f016020809104026020016040519081016040528092919081815260200182805460018160011615610100020316600290048015610a945780601f10610a6957610100808354040283529160200191610a94565b820191906000526020600020905b815481529060010190602001808311610a7757829003601f168201915b50505050508152602001600382018054600181600116156101000203166002900480601f016020809104026020016040519081016040528092919081815260200182805460018160011615610100020316600290048015610b365780601f10610b0b57610100808354040283529160200191610b36565b820191906000526020600020905b815481529060010190602001808311610b1957829003601f168201915b50505050508152602001600482018054600181600116156101000203166002900480601f016020809104026020016040519081016040528092919081815260200182805460018160011615610100020316600290048015610bd85780601f10610bad57610100808354040283529160200191610bd8565b820191906000526020600020905b815481529060010190602001808311610bbb57829003601f168201915b505050505081526020016005820154815250508152602001906001019061092c565b5050505081525050905090565b828054600181600116156101000203166002900490600052602060002090601f016020900481019282601f10610c4857805160ff1916838001178555610c76565b82800160010185558215610c76579182015b82811115610c75578251825591602001919060010190610c5a565b5b509050610c839190610d21565b5090565b828054600181600116156101000203166002900490600052602060002090601f016020900481019282601f10610cc05780548555610cfd565b82800160010185558215610cfd57600052602060002091601f016020900482015b82811115610cfc578254825591600101919060010190610ce1565b5b509050610d0a9190610d21565b5090565b6040518060200160405280606081525090565b610d4391905b80821115610d3f576000816000905550600101610d27565b5090565b90565b600081359050610d5581611313565b92915050565b600082601f830112610d6c57600080fd5b8135610d7f610d7a826111f2565b6111c5565b91508082526020830160208301858383011115610d9b57600080fd5b610da68382846112c0565b50505092915050565b60008060008060808587031215610dc557600080fd5b6000610dd387828801610d46565b945050602085013567ffffffffffffffff811115610df057600080fd5b610dfc87828801610d5b565b935050604085013567ffffffffffffffff811115610e1957600080fd5b610e2587828801610d5b565b925050606085013567ffffffffffffffff811115610e4257600080fd5b610e4e87828801610d5b565b91505092959194509250565b6000610e668383610ff3565b905092915050565b610e7781611284565b82525050565b610e8681611284565b82525050565b6000610e978261122e565b610ea18185611251565b935083602082028501610eb38561121e565b8060005b85811015610eef5784840389528151610ed08582610e5a565b9450610edb83611244565b925060208a01995050600181019050610eb7565b50829750879550505050505092915050565b6000610f0c82611239565b610f168185611262565b9350610f268185602086016112cf565b610f2f81611302565b840191505092915050565b6000610f4582611239565b610f4f8185611273565b9350610f5f8185602086016112cf565b610f6881611302565b840191505092915050565b6000610f80601683611273565b91507f616d6f756e7420657863656564732062616c616e6365000000000000000000006000830152602082019050919050565b6000610fc0601683611273565b91507f616d6f756e74206c6f776572207468656e207a65726f000000000000000000006000830152602082019050919050565b600060c08301600083015161100b6000860182610e6e565b50602083015161101e6020860182610e6e565b50604083015184820360408601526110368282610f01565b915050606083015184820360608601526110508282610f01565b9150506080830151848203608086015261106a8282610f01565b91505060a083015161107f60a08601826110b4565b508091505092915050565b600060208301600083015184820360008601526110a78282610e8c565b9150508091505092915050565b6110bd816112b6565b82525050565b6110cc816112b6565b82525050565b600060c0820190506110e76000830189610e7d565b6110f46020830188610e7d565b81810360408301526111068187610f3a565b9050818103606083015261111a8186610f3a565b9050818103608083015261112e8185610f3a565b905061113d60a08301846110c3565b979650505050505050565b6000602082019050818103600083015261116181610f73565b9050919050565b6000602082019050818103600083015261118181610fb3565b9050919050565b600060208201905081810360008301526111a2818461108a565b905092915050565b60006020820190506111bf60008301846110c3565b92915050565b6000604051905081810181811067ffffffffffffffff821117156111e857600080fd5b8060405250919050565b600067ffffffffffffffff82111561120957600080fd5b601f19601f8301169050602081019050919050565b6000819050602082019050919050565b600081519050919050565b600081519050919050565b6000602082019050919050565b600082825260208201905092915050565b600082825260208201905092915050565b600082825260208201905092915050565b600061128f82611296565b9050919050565b600073ffffffffffffffffffffffffffffffffffffffff82169050919050565b6000819050919050565b82818337600083830152505050565b60005b838110156112ed5780820151818401526020810190506112d2565b838111156112fc576000848401525b50505050565b6000601f19601f8301169050919050565b61131c81611284565b811461132757600080fd5b5056fea365627a7a723158200b4f78d0c1acc553e233aa2d9732416a7fefbcd1dbbaf42d79de9a4e209124e86c6578706572696d656e74616cf564736f6c63430005100040",
  "source": "// SPDX-License-Identifier: UNLICENSED\r\npragma solidity >=0.5.0;\r\npragma experimental ABIEncoderV2;\r\n\r\ncontract Actions{\r\n\r\n    struct Action{\r\n        address payable user_id;\r\n        address payable provider_id;\r\n        string name;\r\n        string location;\r\n        string time;\r\n        uint payment_amount;\r\n    }\r\n\r\n    struct Users{\r\n        Action[] actionsList;\r\n    }\r\n\r\n    Action public action;\r\n    mapping (address => Users) allUsers;\r\n    mapping (address => uint) balance;\r\n\r\n    modifier checkBalance(uint amount){\r\n        require(amount <= balance[msg.sender], \"amount exceeds balance\");\r\n        _;\r\n    }\r\n\r\n    modifier checkAmount(uint amount){\r\n        require(amount >= 0, \"amount lower then zero\");\r\n        _;\r\n    }\r\n\r\n    constructor() public payable{\r\n        balance[msg.sender] = msg.sender.balance;\r\n    }\r\n\r\n    function setAction( address payable _provider,\r\n                        string memory _name,\r\n                        string memory _locations,\r\n                        string memory _time)\r\n                        public checkAmount(msg.value) checkBalance(msg.value) payable{\r\n\r\n            balance[_provider] = _provider.balance;\r\n            balance[msg.sender] = msg.sender.balance;\r\n\r\n            action.user_id = msg.sender;\r\n            action.provider_id = _provider;\r\n            action.name = _name;\r\n            action.location = _locations;\r\n            action.time = _time;\r\n            action.payment_amount = msg.value;\r\n\r\n            allUsers[msg.sender].actionsList.push(action);\r\n\r\n            balance[msg.sender] -= msg.value;\r\n            msg.sender.transfer(msg.value);\r\n            balance[_provider] += msg.value;\r\n        }\r\n        function getUserActions() public view returns(Users memory){\r\n            return allUsers[msg.sender];\r\n        }\r\n\r\n        function getBalance() public payable returns(uint){\r\n            balance[msg.sender] = msg.sender.balance;\r\n            return balance[msg.sender];\r\n        }\r\n\r\n}",
  "sourcePath": "D:\\Projects\\BCapp\\UDID\\udid\\contracts\\Actions.sol",
  "compiler": {
    "name": "solc",
    "version": "0.5.16+commit.9c3226ce.Emscripten.clang"
  },
  "schemaVersion": "3.2.0",
  "updatedAt": "2020-06-26T16:57:53.733Z",
  "networkType": "ethereum",
  "devdoc": {
    "methods": {}
  },
  "userdoc": {
    "methods": {}
  }
}